S01100007370695F74657374652E7372656343
S21440000098C64020E90D4000E50D4000E50D400053
S214400010E50D4000E50D4000E50D40000000000005
S214400020000000000000000000000000E50D400059
S214400030E50D400000000000E50D4000E50D4000E5
S214400040E50D4000E50D4000E50D4000E50D4000A3
S214400050E50D4000E50D4000E50D4000E50D400093
S214400060E50D4000000000000D0C4000210C400053
S214400070350C4000E50D4000E50D4000E50D400024
S214400080490C40005D0C4000E50D4000E50D400089
S214400090E50D4000E50D4000E50D4000E50D400053
S2144000A0E50D4000E50D4000E50D4000E50D400043
S2144000B0E50D4000E50D4000E50D4000E50D400033
S2144000C0E50D4000E50D4000E50D4000E50D400023
S2144000D000000000E50D400000000000E50D400077
S2144000E0E50D4000E50D4000E50D4000E50D400003
S2144000F0E50D4000E50D4000E50D4000E50D4000F3
S214400100E50D4000E50D4000E50D4000E50D4000E2
S214400110E50D400000000000000000000000000068
S214400120E50D4000E50D4000E50D4000E50D4000C2
S214400130E50D400000000000E50D4000E50D4000E4
S21440014010B5054C237833B9044B13B10448AFF3CC
S21440015000800123237010BDE4A54020000000006D
S214400160BC2D40000C4B43B10C480D4910B5AFF3C5
S21440017000800C48036823B910BD0A48036833B9A9
S2144001807047094B002BF7D0BDE810401847064B88
S214400190002BF5D0184700BF00000000BC2D4000E3
S2144001A0E8A54020BC2D40000000000008B5074BE5
S2144001B0984203D0064B984204D008BD1520054B04
S2144001C0984708BD2A20034B9847F6E70080004032
S2144001D000800540910D4000436823F4702343603F
S2144001E04368090401F4702119434160704730B4F4
S2144001F043F69924056915F0020F03D1013CF9D165
S21440020001200CE0446814F0020F06D0120402F4F9
S214400210702211430BB141F08071C160002030BCA8
S214400220704732B900EB8100036B23F00103036390
S214400230704700EB8100036B43F001030363704794
S21440024032B900EB8100036B23F00203036370476F
S21440025000EB8100036B43F0020303637047042AFC
S21440026003D06AB1082A16D0704700EB8100036BB2
S21440027023F008030363036B43F0040303637047F0
S21440028000EB8100036B23F008030363036B23F04A
S21440029004030363704700EB8100036B43F00803DD
S2144002A00363E1E700EB81010B6B23F0F0030B6384
S2144002B00B6B1A430A637047431E1944B1FBF0F0B8
S2144002C0431EFE2B94BF00B24FF0FF3070477AB10A
S2144002D010B4144600EB81010B6B23F47F430B6391
S2144002E00A6B42EA04220A6300205DF8044B70471A
S2144002F04FF0FF30704700002DE9F0478418802CFF
S21440030002DDC0F18004E2B222B3CD08A1EBC50104
S214400310012606FA01F1CEB2012B1DD0002B35D0B6
S214400320022B17D10138C7B2D419E4B2DFF890A037
S2144003304FF00009DFF88C8021462846D04786EAF1
S21440034000024B46D2B221462846C047013CE4B2A2
S214400350BC42F1D1BDE8F0870138C7B2D419E4B247
S214400360DFF85CA04FF00009DFF8588021462846A9
S214400370D04746EA00024B46D2B221462846C047FE
S214400380013CE4B2BC42F1D1BDE8F0870138C7B2C7
S214400390D419E4B2DFF82880CE43DFF8289021460F
S2144003A02846C04706EA00020023D2B22146284625
S2144003B0C847013CE4B2BC42F1D1BDE8F08700BF7B
S2144003C06D054000F50440002DE9F8439DF8207087
S2144003D08BB11C46904606464D1EEDB22C44E4B208
S2144003E0DFF818903B46424621463046C847013C17
S2144003F0E4B2AC42F6D1BDE8F88300BFF902400053
S2144004002DE9F04F83B00446884691469B465B7A7A
S2144004109BF808200021009149464046214DA847B8
S2144004209BF8003013B103B0BDE8F08F9BF808206E
S214400430D30812F0070F18BF01339BF809A09BF8AA
S2144004400A70E71B17FB0AF717FB03F7DBF80430C5
S21440045013FA87F71FE06400E4B20135EBB29E4220
S21440046010D9EBB208EB0300C0B213F0070F08BF79
S21440047017F8014B14F0800FEDD0012249460A4B85
S2144004809847E8E709F101095FFA89F90AF1FF3A66
S2144004901AF0FF0AC7D09BF80860002EF2D000255D
S2144004A02C46DEE7C9034000950540002DE9F84399
S2144004B0044690461D4689460D4F0E4608E06A7A29
S2144004C0013242445FFA82F8B14614F8013F6BB1FC
S2144004D020780A28F3D00D28F7D02B4642464946C6
S2144004E0B8472B7A99445FFA89F9EEE7BDE8F88376
S2144004F00104400070B50D46164600F00F0040F06F
S214400500B000074CA047C5F3021040F01000A047CB
S21440051005F00F00A0473046024B984770BD00BF1D
S214400520F9054000190840002DE9F0410C4B98476A
S21440053040200C4B984700254FF001082F460A4EA6
S214400540002443463A46E1B22846B0470134802C60
S214400550F7D10135EDB2042DF2D1BDE8F08100BFF0
S21440056039064000F9054000F504400038B50D4610
S21440057000F00F0040F0B000054CA047C5F3021055
S21440058040F01000A04705F00F00A047002038BDFF
S214400590F9054000C3092AD11F2928D82DE9F04182
S2144005A014460546CE08A1EBC601012202FA01F721
S2144005B05FFA87F8014630460D4B98470246012CB5
S2144005C009D064B1022C0ED0002329463046094C8F
S2144005D0A047BDE8F08148EA0002D2B2F4E720EA3C
S2144005E00702D2B2F0E788EA0002D2B2ECE77047E0
S2144005F06D054000F504400038B505460822094B15
S2144006005A63094C01212046084B984701231A4655
S21440061029462046064CA0474FF4FD70054B9847A8
S21440062038BD00BF00100E4000800040D901400099
S214400630EF014000010040202DE9F843664D4FF49D
S21440064000362E61C5F8A060644B08271F61C3F8CA
S214400650A0706E66C5F890606E656E62C5F8806084
S2144006602A6F22F400322A676A6F22F400326A67E1
S2144006705F66C3F890705F655F62C3F880701A6FFC
S21440068022F008021A675A6F22F008025A671F6063
S2144006902E601F632E63DFF87C8100234FF48002B8
S2144006A04FF0805140464E4CA04700234FF4001276
S2144006B04FF080514046A04700234FF000724FF065
S2144006C080514046A04700234FF480024FF08051AF
S2144006D04046A04700234FF400124FF0805140465A
S2144006E0A04700234FF000724FF080514046A0478D
S2144006F03C4C4FF00209C4F800904FF08008C4F814
S2144007000080636843F0010363603A460121204657
S214400710354B9847002201212046344B984700220B
S21440072001212046324B9847636823F002036360FA
S2144007300022012120462F4B9847636823F0800310
S2144007406360636843F0100363602B492B482C4B6F
S2144007509847C2B2012120462A4B984720462A4B4A
S2144007609847012323606E6340F6B830274CA04775
S2144007702E6340F6B830A0472E63A820244CA047EE
S2144007801F20A047D320A0470020A0474020A047D6
S214400790A120A047C820A047DA20A0474846A04747
S2144007A08120A0478F20A047A420A047A620A0478E
S2144007B0D520A0474046A0478D20A0471420A047FC
S2144007C0DB20A0474020A047D920A047F120A047E3
S2144007D0AF20A047BDE8F88300120E4000100E4040
S2144007E0250B4000008000405F024000230240008E
S2144007F041024000A502400080D1F00840420F0070
S214400800B9024000CF024000AD0140000100402048
S214400810F905400000140E4038B505460822094B3D
S2144008201A63094C01212046084B984701231A4673
S21440083029462046064CA0474FF4FD70054B984786
S21440084038BD00BF00100E4000800040D901400077
S214400850EF0140000100402010B51048104B98476B
S2144008603E2100200F4B98470F4CA0470028FCD055
S2144008700E4B98470E4A0F4B9A620F4CA0470028E3
S214400880FCD002200D4B984700200D4B98470D4B4F
S21440089098470248024B984710BD00BF00A3E1119D
S2144008A0BD0F40000D0D4000610D4000710D400031
S2144008B0013F182000060E40810D4000710C40009C
S2144008C0A90C4000B10E4000F8B54FF40042484B2A
S2144008D05A60BFF34F8FBFF36F8F464B0022C3F86B
S2144008E050225A6942F400325A61BFF34F8FBFF329
S2144008F06F8FD3F88070C7F34E3607F0070004308A
S214400900C7F3C907B7FA87FE0EF01F0EBFF34F8F27
S2144009104FF0FF3404FA00FC06FA00F004FA0EF436
S21440092007FA0EFE1D463A46734640EA0301C5F8EE
S2144009306012013A2344B2F1FF3FF6D1013E6044D3
S214400940B6F1FF3FEFD1BFF34F8F2A4B5A6942F4BF
S21440095080325A61BFF34F8FBFF36F8F264A2749C5
S2144009605160A1F580715160BFF34F8FBFF36F8F19
S214400970D3F8902222F00102C3F89022D3F89422B2
S21440098022F00102C3F89422BFF34F8FBFF36F8F5C
S2144009900A201B4CA0470B20A0470C20A047102045
S2144009A0A0471120A047174B4FF480721A61C3F836
S2144009B0A0201A63A3F580634FF400625A61C3F81F
S2144009C0A0205A66C3F890205A651A62C3F884205D
S2144009D0196F21F400611967596F21F40061596756
S2144009E0C3F8C020C3F8D420C3F8B020F8BD00BF79
S2144009F050180E4000ED00E0000C0E400C08005A67
S214400A00910D400000120E400AB9016670474166DB
S214400A107047016370474163704721F00061B1F150
S214400A20405F05D1836B134214BF012000207047FE
S214400A30C36BF8E74264B1F1C05F3AD013D8B1F166
S214400A40006F25D0B1F1805F0AD1036F134303676F
S214400A50436F416F0B4023EA02034367426070478F
S214400A600029FBD17047B1F1205F21D009D8B1F100
S214400A70005FF3D1036F13430367436F134343672A
S214400A80ECE7B1F1405F13D0B1F1605F10D0E5E71D
S214400A9010B4016F046FD34321401C4619400167D0
S214400AA0436F416F0B402340436742605DF8044B01
S214400AB07047036F016F0B4023EA02030367436FDF
S214400AC013434367CAE7416412F0010F0DD1016634
S214400AD012F00A0F0BD0016212F0020F09D112F089
S214400AE0080F08D0C0F8841005E04166F0E7416280
S214400AF0F2E7C0F8801041610160704710B4019C75
S214400B0041644CB901664BB101654AB94163016124
S214400B1001605DF8044B70474166F4E74165F4E7D1
S214400B200163F4E770B582B0054616461C46B1F13F
S214400B30005F14D00AD9B1F1405F24D0B1F1605FB4
S214400B4021D0B1F1205F17D000201AE0B1F1805FCC
S214400B5005D0B1F1C05F02D0B1F1006FF4D132469A
S214400B602846114B984714F0010F02D12E660120FB
S214400B7007E06E66012004E01A4631460B4B984764
S214400B80012002B070BD04F001030093C4F380035B
S214400B90B1F1605F14BF0022012231462846044C62
S214400BA0A0470120EDE700BF350A4000C70A4000D5
S214400BB0FD0A4000C06C7047806C70472DE9F041DC
S214400BC0044688460E4B9847054620460D4B9847A8
S214400BD0054013D00C4C04F1600603E0B4420DD03F
S214400BE010345DB120684045F8D161682942F5D09F
S214400BF0E3689847636825EA0305EFE7BDE8F081B8
S214400C00B50B4000B90B400000A6402008B50A21AD
S214400C100148024B984708BD000E0E40BD0B4000F1
S214400C2008B50B210148024B984708BD00100E40FE
S214400C30BD0B400008B50C210148024B984708BD43
S214400C4000120E40BD0B400008B510210148024B73
S214400C50984708BD00140E40BD0B400008B5112152
S214400C600148024B984708BD00160E40BD0B400099
S214400C70032811D0042812D002280CBF4FF48071EC
S214400C800021084A136B23F440730B431363936E9F
S214400C9013F0080FFBD070474FF44071F1E74FF464
S214400CA00071EEE700060E40174A136B23F0700300
S214400CB018431063936E13F0080F0AD14FF4805315
S214400CC011498A6E12F0080F03D1013BF9D1012079
S214400CD070470D4A136B23F0030343F0020313637C
S214400CE0936E13F0080F0AD14FF4805306498A6E6C
S214400CF012F0080F05D1013BF9D1012070470020C2
S214400D0070470020704700BF00060E40A0B90E484E
S214400D10036A090289B20D4A1A400D4B1343194320
S214400D2001620246936E13F0010FFBD0064A116A29
S214400D30084B0B431362704703490B6A064A1A4036
S214400D40064B13430B62704700060E40FCFFC8FF7D
S214400D500100370000003701FCFFC8FE02003701E3
S214400D60024B986E00F48030704700BF00060E407D
S214400D704FF00052014B9A62704700BF00060E408B
S214400D80024B986E00F00200704700BF00060E400F
S214400D903F281ED81F280CD8114B9A690123834040
S214400DA0934318D0012303FA00F00D4B186100203E
S214400DB0704720380A4BD3F80821012383409343D9
S214400DC00BD0012303FA00F0054BC3F800010020C6
S214400DD0704701207047002070470020704700BFD2
S214400DE000060E40FEE7000000B583B0254B264ABD
S214400DF09A4210D0254B234A9A420CD2013B9B1A6A
S214400E0023F00303043313441F4951F8040B42F8FC
S214400E10040B9A42F9D11E4B1E4A9A420AD2013B13
S214400E209B1A23F0030304331344002142F8041BA7
S214400E309342FBD1184A194B23F07F039360EFF39C
S214400E401083B3FA83F35B09019372B6BFF35F8FE7
S214400E500022134B1A700199124A136843F4700328
S214400E601360BFF34F8FBFF36F8F29B101220C4B36
S214400E701A70BFF35F8F62B60B4B98470B4B984781
S214400E80FEE700BF00004020BC2D4000E4A5402007
S214400E9098A64020E4A5402000ED00E00000400079
S214400EA01800402088ED00E095214000A91440003D
S214400EB03B4B1B6B03F00303012B1DD083B1022B6E
S214400EC036D0374B1B6B03F07003702B5FD0344B20
S214400ED01A6B3449C2F302120B68D3400B6070475A
S214400EE0314B5B6913F0800F14BF4FF400424FF450
S214400EF0FA422C4B1A60E4E7294B1B6A13F0807FBA
S214400F0003D02A4A274B1A60DBE7294A254B1A604A
S214400F10234B1B6A03F07003102B05D0202BD0D137
S214400F20224A204B1A60CCE7224A1E4B1A60C8E77A
S214400F301B4B1B6A13F0807F16D01C4A194B1A6055
S214400F40174B1B6B03F00303022BBAD1144A916A6A
S214400F50926A1448C1F30A41036801FB0333D2B2D4
S214400F60B3FBF2F30360ACE7114A0E4B1A600C4B2E
S214400F701B6A03F07003102B05D0202BE0D10B4AE0
S214400F80084B1A60DCE70B4A064B1A60D8E7054A5E
S214400F9013680949A1FB03135B081360704700BF41
S214400FA000060E401C00402010180E40001BB700E4
S214400FB000093D0000127A00ABAAAAAA164B984236
S214400FC013D9164B984215D9154B984216D9154B3E
S214400FD0984217D9144B984218D9144B984294BF4C
S214400FE0134A144A144B1A6070474FF08062124BF3
S214400FF01A607047114A104B1A607047104A0E4BE1
S2144010001A6070470F4A0C4B1A6070474FF0042224
S214401010094B1A60704700BFBFF35E017FE7BD0211
S2144010203FDB1C04FFCE7B05BFC2DA067FB639081D
S2144010300005000400060004000C0E4000010004F9
S214401040000200040003000408B54FF400624FF0AD
S21440105020510248024B984708BD00BF000E0E4084
S2144010601B0A40002DE9F84F514B93FBF0F84FF424
S2144010707A7707FB01F79346002A00F091804D4BA4
S2144010801B6833B1022B29D004214B484B4B984761
S21440109004E04FF080414A48484B984797FBF8F7A2
S2144010A0002F41DD4046B8F1000FB8BF08F10100FF
S2144010B04010C517434BA0FB030103FB0511424AF2
S2144010C00023424C002500196941414CA047824606
S2144010D00024404EDFF808913F4D10E001213F4884
S2144010E0364B9847DAE73320A8474FF4801130460E
S2144010F0324B98473320A8470134BC4211DA4FF4AC
S21440110080113046C84708F10103022BEBD9504600
S214401110A8474FF480113046284B98475046A8477A
S214401120EAE7BBF1000F40D0224B1B689BB1022B75
S21440113024D0042120482A4B98471E490A68013289
S214401140284B83FB0203A3EBE27303EB4303D31A60
S2144011500B60BDE8F88F4FF080411948204B984708
S21440116014490A6801321F4B83FB0203A3EBE27368
S21440117003EB4303D31A0B60BDE8F88F01211748F1
S214401180174B98470B490A680132164B83FB0203FC
S214401190A3EBE27303EB4303D31A0B60BDE8F88F6F
S2144011A097FBF8F7002F3FF77DAFBDE8F88F00BFFD
S2144011B040420F0070A6402000100E40170A400024
S2144011C000120E4000A3E111E0835A00DF835A006C
S2144011D0851E400000140E4001004020000E0E40C8
S2144011E0130A400056555555002A54DD2DE9F04F58
S2144011F083B001920E1FA0F1040A0025284F294C07
S2144012000EE03320284B9847012200990020B8472B
S214401210264B9847002835D00135019BAB4237D046
S214401220DFF88CB056F8040FD847DFF88890DDE931
S2144012300C23C847DFF88080C04701220090014653
S2144012405AF8040FB8470098D84713A3D3E90023A9
S214401250C847C0470028D4D0C317A0FB040104FBEE
S214401260031141F22C72002341F22B784FF0000913
S21440127010EB080041EB0901DFF84080C0470A4BFD
S2144012809847C1E70022642140F6B830044B98479F
S21440129003B0BDE8F08F7047CDCCCCCCCCCCF43F7F
S2144012A06510400000A3E1110100402049104000B5
S2144012B045194000111A4000351E4000851E40006A
S2144012C02DE9F047B0F1000839DB0B460029B8BFDE
S2144012D04B1C0F465810C5171A4BA0FB030103FBC7
S2144012E0051141F22C72002341F22B74002500199F
S2144012F06941154CA04782460024144EDFF85890AA
S214401300134D0BE03320A8474FF480713046114B05
S21440131098473320A8470134A04510DB4FF480712E
S2144013203046C8477B1C022BECD95046A8474FF4A2
S21440133080713046074B98475046A847EBE7BDE8D4
S214401340F08700BF00A3E111851E400000120E404A
S21440135001004020130A4000170A40002DE9F043E0
S21440136083B0404B9847404B98474FF400423F4B22
S2144013705A600A203E4DA8470B20A8470C20A84795
S2144013801020A8471520A8470C20A8470A20A847A1
S2144013900C20A8470B20A8470A20A8470A20A847A1
S2144013A000240094234622464FF480113148324FA1
S2144013B0B847DFF8E8800094234622464FF4807111
S2144013C04046B8472D4E00942346224601213046DB
S2144013D0B8470094234622464FF080414046B847DF
S2144013E0DFF8BC9000942346224604214846B8477E
S2144013F022464FF400613046214FB84722464FF40C
S21440140000213046B84701224FF4006130461D4C5B
S214401410A04701224FF400213046A0474FF4807188
S2144014204046194CA04701213046A0474FF0804126
S2144014304046A04704214846A0470A20A8470B201C
S214401440A8470C20A8471020A8471520A8470F4BB0
S21440145098470F4B14220A210E480F4CA04703B062
S214401460BDE8F08359084000C908400050180E40B7
S214401470910D400000140E40FD0A4000000E0E4044
S214401480C70A4000090A4000130A400029054000E8
S2144014900C0040204C2D4000AD04400000120E4091
S2144014A000100E40000000002DE9F0472DED048BA3
S2144014B082B05D4B984701265C4DDFF8DC815C4F7F
S2144014C09FED559B9FED568B59E0A847A8B14FF42A
S2144014D000224FF020514846A0470028F5D1731C03
S2144014E08AFB0312DE17C6EB620606EB86069E1BD9
S2144014F0C82130464F4B9847E7E7002264214FF417
S2144015001670C0474C4C01E02046B847A847002814
S214401510FAD0002264214FF41670C047474CA847C3
S21440152010B1013CFBD10DE0731C454A82FB03120F
S214401530DE17C6EB620606EB86069E1BC8213046C3
S2144015403C4B98473F48B847A847002859D0042EF8
S21440155048D8DFE806F003471A2A38003A4B1422E8
S2144015600A213A483A4CA04700223A4BCDE900239C
S214401570CB22394939483A4B98473248B847DFF882
S2144015801C91384CDFF8B8A0A1E72F4B14220A2153
S21440159035482F4CA04700222E4BCDE9002314227D
S2144015A0324933482E4B9847E7E7274B14220A2107
S2144015B03048274CA0478DED008B38222E492F48C7
S2144015C0274B9847D9E7204B14220A212C48204C19
S2144015D0A0478DED008B4FF470622A492A48204B75
S2144015E09847CAE7184B14220A212848184CA047A7
S2144015F08DED009B40F21C4225492648184B9847E3
S214401600BBE70022642140F6B830C0470D48B847D3
S214401610B5E700BFAFF30080000000000000E03FE9
S214401620000000000000F03F5D13400049104000FD
S21440163001004020C112400084B7070080841E008D
S214401640676666666BAF03030C004020582D40006B
S214401650AD0440000000E83F5C504020304D402044
S214401660E91140001B0A4000642D4000E04C402039
S214401670904C40206C2D4000D8A04020F89F402041
S214401680742D4000F863402090104020802D40008C
S214401690885340202000402065104000000E0E4039
S2144016A081F0004102E000BF83F0004330B54FEACE
S2144016B041044FEA430594EA050F08BF90EA020F3B
S2144016C01FBF54EA000C55EA020C7FEA645C7FEACE
S2144016D0655C00F0E2804FEA5454D4EB5555B8BFF1
S2144016E06D420CDD2C4480EA020281EA030382EA62
S2144016F0000083EA010180EA020281EA0303362DF4
S21440170088BF30BD11F0004F4FEA01314FF4801CC6
S2144017104CEA113102D0404261EB410113F0004FD8
S2144017204FEA03334CEA133302D0524263EB43038F
S21440173094EA050F00F0A780A4F10104D5F1200E2D
S2144017400DDB02FA0EFC22FA05F2801841F1000188
S21440175003FA0EF2801843FA05F359410EE0A5F15C
S21440176020050EF1200E012A03FA0EFC28BF4CF08D
S214401770020C43FA05F3C01851EBE37101F0004543
S21440178007D54FF0000EDCF1000C7EEB00006EEB50
S2144017900101B1F5801F1BD3B1F5001F0CD34908DA
S2144017A05FEA30004FEA3C0C04F101044FEA445231
S2144017B012F5800F80F09A80BCF1004F08BF5FEAB8
S2144017C0500C50F1000041EB045141EA050130BD98
S2144017D05FEA4C0C404141EB010111F4801FA4F13B
S2144017E00104E9D191F0000F04BF01460020B1FA90
S2144017F081F308BF2033A3F10B03B3F120020CDAC8
S2144018000C3208DD02F1140CC2F10C0201FA0CF0A5
S21440181021FA02F10CE002F11402D8BFC2F1200C0A
S21440182001FA02F120FA0CFCDCBF41EA0C019040C0
S214401830E41AA2BF01EB0451294330BD6FEA040409
S2144018401F3C1CDA0C340EDC04F11404C4F12002F4
S21440185020FA04F001FA02F340EA030021FA04F306
S21440186045EA030130BDC4F10C04C4F1200220FA5D
S21440187002F001FA04F340EA0300294630BD21FA9B
S21440188004F0294630BD94F0000F83F4801306BF61
S21440189081F480110134013D4EE77FEA645C18BF55
S2144018A07FEA655C29D094EA050F08BF90EA020FEC
S2144018B005D054EA000C04BF1946104630BD91EAE4
S2144018C0030F1EBF0021002030BD5FEA545C05D1E7
S2144018D04000494128BF41F0004130BD14F5800426
S2144018E03CBF01F5801130BD01F0004545F0FE419A
S2144018F041F470014FF0000030BD7FEA645C1ABFCF
S214401900194610467FEA655C1CBF0B46024650EA05
S214401910013406BF52EA033591EA030F41F4002131
S21440192030BD00BF90F0000F04BF0021704730B5B7
S2144019304FF4806404F132044FF000054FF000018C
S21440194050E700BF90F0000F04BF0021704730B54D
S2144019504FF4806404F1320410F0004548BF404222
S2144019604FF000013EE700BF42004FEAE2014FEA77
S21440197031014FEA02701FBF12F07F4393F07F4F52
S21440198081F06051704792F0000F14BF93F07F4F84
S214401990704730B54FF4607401F0004521F00041C7
S2144019A020E700BF50EA010208BF704730B54FF04D
S2144019B000050AE050EA010208BF704730B511F052
S2144019C0004502D5404261EB41014FF4806404F18A
S2144019D032045FEA915C3FF4DCAE4FF003025FEA0C
S2144019E0DC0C18BF03325FEADC0C18BF033202EB94
S2144019F0DC02C2F1200300FA03FC20FA02F001FAEE
S214401A0003FE40EA0E0021FA02F11444C1E600BF8C
S214401A1070B54FF0FF0C4CF4E06C1CEA11541DBF3F
S214401A201CEA135594EA0C0F95EA0C0F00F0DEF80A
S214401A302C4481EA030621EA4C5123EA4C5350EAEF
S214401A40013518BF52EA033541F4801143F4801340
S214401A5038D0A0FB02CE4FF00005E1FB02E506F0D1
S214401A600042E0FB03E54FF00006E1FB03569CF026
S214401A70000F18BF4EF0010EA4F1FF04B6F5007F2C
S214401A8064F5407404D25FEA4E0E6D4146EB06069E
S214401A9042EAC62141EA55514FEAC52040EA5E5027
S214401AA04FEACE2EB4F1FD0C88BFBCF5E06F1ED8D1
S214401AB0BEF1004F08BF5FEA500E50F1000041EB08
S214401AC0045170BD06F0004646EA010140EA0200B5
S214401AD081EA0301B4EB5C04C2BFD4EB0C0541EAD7
S214401AE0045170BD41F480114FF0000E013C00F3EC
S214401AF0AB8014F1360FDEBF002001F0004170BD10
S214401B00C4F10004203C35DA0C341BDC04F1140428
S214401B10C4F1200500FA05F320FA04F001FA05F2B4
S214401B2040EA020001F0004221F0004110EBD37081
S214401B3021FA04F642EB06015EEA430E08BF20EAAD
S214401B40D37070BDC4F10C04C4F1200500FA04F350
S214401B5020FA05F001FA04F240EA020001F00041E2
S214401B6010EBD37041F100015EEA430E08BF20EA55
S214401B70D37070BDC4F1200500FA05F24EEA020E9D
S214401B8020FA04F301FA05F243EA020321FA04F0CC
S214401B9001F0004121FA04F220EA020000EBD37083
S214401BA05EEA430E08BF20EAD37070BD94F0000F83
S214401BB00FD101F00046400041EB010111F4801FB7
S214401BC008BF013CF7D041EA060195F0000F18BF68
S214401BD0704703F00046520043EB030313F4801FA4
S214401BE008BF013DF7D043EA0603704794EA0C0F5E
S214401BF00CEA135518BF95EA0C0F0CD050EA410674
S214401C0018BF52EA4306D1D181EA030101F00041F0
S214401C104FF0000070BD50EA410606BF1046194618
S214401C2052EA430619D094EA0C0F02D150EA013624
S214401C3013D195EA0C0F05D152EA03361CBF104665
S214401C4019460AD181EA030101F0004141F0FE4104
S214401C5041F470014FF0000070BD41F0FE4141F488
S214401C60780170BD70B54FF0FF0C4CF4E06C1CEA88
S214401C7011541DBF1CEA135594EA0C0F95EA0C0F3D
S214401C8000F0A7F8A4EB050481EA030E52EA0335F8
S214401C904FEA013100F088804FEA03334FF0805519
S214401CA045EA131343EA12634FEA022245EA111546
S214401CB045EA10654FEA00260EF000419D4208BFF7
S214401CC0964244F1FD0404F5407402D25B084FEAA4
S214401CD03202B61A65EB03055B084FEA32024FF450
S214401CE080104FF4002CB6EB020E75EB030E22BFAD
S214401CF0B61A754640EA0C005B084FEA3202B6EB6D
S214401D00020E75EB030E22BFB61A754640EA5C001B
S214401D105B084FEA3202B6EB020E75EB030E22BFAB
S214401D20B61A754640EA9C005B084FEA3202B6EBAC
S214401D30020E75EB030E22BFB61A754640EADC006B
S214401D4055EA060E18D04FEA051545EA16754FEACD
S214401D5006164FEAC30343EA52734FEAC2025FEAEB
S214401D601C1CC0D111F4801F0BD141EA00014FF07A
S214401D7000004FF0004CB6E711F4801F04BF01434B
S214401D800020B4F1FD0C88BFBCF5E06F3FF6AFAE67
S214401D90B5EB030C04BFB6EB020C5FEA500C50F1F7
S214401DA0000041EB045170BD0EF0004E4EEA11317A
S214401DB014EB5C04C2BFD4EB0C0541EA045170BD81
S214401DC041F480114FF0000E013C90E645EA060EC5
S214401DD08DE60CEA135594EA0C0F08BF95EA0C0FF3
S214401DE03FF43BAF94EA0C0F0AD150EA01347FF43B
S214401DF034AF95EA0C0F7FF425AF104619462CE712
S214401E0095EA0C0F06D152EA03353FF4FDAE104674
S214401E10194622E750EA410618BF52EA43067FF4C5
S214401E20C5AE50EA41047FF40DAF52EA43057FF455
S214401E30EBAE12E74FEA410212F5001215D211D569
S214401E406FF47873B3EB625212D94FEAC12343F072
S214401E50004343EA505311F0004F23FA02F018BFF4
S214401E60404270474FF00000704750EA013005D1BD
S214401E7011F0004008BF6FF0004070474FF0000080
S214401E80704700BF53B94AB9002908BF00281CBF95
S214401E904FF0FF314FF0FF3000F07AB9ADF1080C4B
S214401EA06DE904CE00F006F8DDF804E0DDE9022333
S214401EB004B070472DE9F0478C460D460446089E10
S214401EC0002B51D18A4217466DD9B2FA82FEBEF136
S214401ED0000F0BD0CEF1200C01FA0EF520FA0CFCC8
S214401EE002FA0EF74CEA050C00FA0EF44FEA174ACF
S214401EF0250CBCFBFAF81FFA87F90AFB18CC45EA12
S214401F000C4508FB09F3AB420AD9ED1908F1FF323C
S214401F1080F02381AB4240F22081A8F102083D4484
S214401F20ED1AA4B2B5FBFAF00AFB105544EA054494
S214401F3000FB09F9A14509D9E41900F1FF3380F007
S214401F400A81A14540F2078102383C44A4EB0904CB
S214401F5040EA08400021002E61D024FA0EF4002307
S214401F6034607360BDE8F0878B4207D9002E54D0AA
S214401F70002186E821000846BDE8F087B3FA83F1E1
S214401F80002940F08E80AB4202D3824200F2FA80B3
S214401F90841A65EB03050120AC46002E3FD086E848
S214401FA01010BDE8F08712B90127B7FBF2F7B7FA71
S214401FB087FEBEF1000F34D1EB1B3A0C1FFA87FCAC
S214401FC00121B3FBF2F8250C02FB183345EA034522
S214401FD00CFB08F3AB4207D9ED1908F1FF3002D2EB
S214401FE0AB4200F2D1808046ED1AA3B2B5FBF2F0C8
S214401FF002FB105543EA05440CFB00FCA44507D9F8
S214402000E41900F1FF3302D2A44500F2B880184626
S214402010A4EB0C0440EA08409DE731463046BDE854
S214402020F087CEF1200405FA0EF307FA0EF720FAF1
S21440203004F83A0C25FA04F448EA0308B4FBF2F133
S2144020404FEA184502FB11441FFA87FC45EA04454F
S21440205001FB0CF3AB4200FA0EF409D9ED1901F17D
S214402060FF3080F08A80AB4240F2878002393D44A0
S214402070EB1A1FFA88F5B3FBF2F002FB103345EA81
S214402080034500FB0CF3AB4207D9ED1900F1FF38CE
S2144020906FD2AB426DD902383D44EB1A40EA01415B
S2144020A08FE7C1F1200722FA07F88B4005FA01F4C2
S2144020B048EA030320FA07FE4FEA134CFD404EEA77
S2144020C0040EB5FBFCF94FEA1E440CFB19551FFAEB
S2144020D083F844EA054509FB08F4AC4202FA01F2EB
S2144020E000FA01FA08D9ED1809F1FF3043D2AC42A4
S2144020F041D9A9F102091D442D1B1FFA8EFEB5FBDE
S214402100FCF00CFB10554EEA054400FB08F8A045D1
S21440211007D9E41800F1FF3529D2A04527D902385F
S2144021201C4440EA0940A4EB0804A0FB02894C4545
S214402130C6464D4615D312D056B1BAEB0E0364EBE5
S214402140050404FA07F7CB401F43CC403760746061
S2144021500021BDE8F0871846F8E69046E0E6C2451E
S214402160EAD2B8EB020E69EB03050138E4E72846ED
S214402170D7E7404691E78146BEE7014678E7023812
S2144021803C4445E7084608E7A8F102083D442BE7EB
S214402190704700BF70B50F4E0F4D761BB61018BF78
S2144021A0002405D0013455F8043B9847A642F9D19F
S2144021B00A4E0B4D761B00F0EBFDB61018BF002400
S2144021C006D0013455F8043B9847A642F9D170BD75
S2144021D070BD00BF9C2D40009C2D4000A42D4000AB
S2144021E09C2D4000024B13B1024800F005B87047E2
S2144021F00000000005224000002301461A4618460B
S21440220000F01EB838B50A4C0A4D641BA4100AD01C
S21440221004F18043013B05EB8305013C55F8043946
S2144022209847002CF9D1BDE8384000F0BBBD00BF50
S214402230B42D4000B02D4000704700BF704700BF2F
S2144022402DE9F8432C4D0646286898460F46914699
S214402250FFF7F2FF294B1C68D4F84831002B3ED0DC
S2144022605A681F2A1CDC02F1010E76B103EB82018C
S2144022700124C1F88890D3F8880194402043022E68
S214402280C3F88801C1F8088123D00232C3F804E0BD
S214402290286843F82270FFF7D1FF0020BDE8F88396
S2144022A0174B0BB34FF4C870AFF300800346D8B15A
S2144022B0D4F848210260002141600A46C4F848012B
S2144022C04FF0010EC0F88811C0F88C11002EDCD0FB
S2144022D0CCE7D3F88C110C43C3F88C41D5E704F512
S2144022E0A673C4F84831BBE72868FFF7A7FF4FF04E
S2144022F0FF30BDE8F88300BFE0A540208C2D4000AD
S2144023000000000000000000000000000000000088
S2144023100000000000000000000000000000000078
S2144023200000000030003000300030003000300048
S21440233000003000300000000000000000000000F8
S2144023406C006C006C006C00000000000000000098
S2144023500000000000000000000000000000280010
S21440236028007C00280028007C0028002800000068
S214402370000000000000000010003C00400020006C
S2144023801000080004007800100000000000000064
S2144023900000000000007C00A400A80050002800B8
S2144023A05400940088000000000000000000000078
S2144023B060009000900090006000940088008800C4
S2144023C07000000000000000000000001000100038
S2144023D010000000000000000000000000000000A8
S2144023E00000000000000000080010002000200050
S2144023F02000200020002000100008000000000000
S2144024000000000020001000080008000800080037
S214402410080008001000200000000000000028000F
S21440242010007C00100028000000000000000000A3
S2144024300000000000000000000000000000000057
S214402440100010001000FE001000100010000000E9
S2144024500000000000000000000000000000000037
S21440246000000000000000001000300020000000C7
S21440247000000000000000000000000000007C009B
S2144024800000000000000000000000000000000007
S21440249000000000000000000000000000003000C7
S2144024A030000000000000000000000000000800AF
S2144024B008001000100020002000400040000000EF
S2144024C000000000000000000000780084008C003F
S2144024D09400A400C40084007800000000000000BF
S2144024E000000000000010003000500010001000F7
S2144024F0100010007C0000000000000000000000FB
S2144025000000700088000800100020004000800096
S214402510F80000000000000000000000000070000E
S214402520880008003000080008008800700000009E
S214402530000000000000000000000800180028000E
S21440254048008800FC00080008000000000000006A
S214402550000000000000780080008000F0000800C6
S21440256008000800F0000000000000000000000026
S2144025700000300040008000F0008800880088009E
S2144025807000000000000000000000000000F8009E
S214402590080010001000200020004000400000000E
S2144025A00000000000000000000070008800880066
S2144025B0700088008800880070000000000000005E
S2144025C00000000000007000880088008800780046
S2144025D0080010006000000000000000000000003E
S2144025E00000000000003000300000000000300016
S2144025F03000000000000000000000000000000066
S2144026000000300030000000000030003000600065
S214402610400000000000000000000000080010001D
S21440262020004000200010000800000000000000CD
S2144026300000000000000000000000007C000000D9
S2144026407C000000000000000000000000000000C9
S214402650000000004000200010000800100020008D
S21440266040000000000000000000000000003000B5
S2144026704800080010002000000000002000000075
S2144026800000000000000000000000003C00420087
S2144026909A00AA00AA00BE00800078000000000051
S2144026A000000000000010002800280044007C00C5
S2144026B04400440044000000000000000000000009
S2144026C00000F80084008400F80084008400840041
S2144026D0F8000000000000000000000000003C0081
S2144026E04000800080008000800040003C000000E9
S2144026F000000000000000000000F0008800840099
S2144027008400840084008800F00000000000000080
S214402710000000000000F80080008000F00080000C
S21440272080008000F800000000000000000000006C
S2144027300000F80080008000F800800080008000E4
S21440274080000000000000000000000000003C0088
S2144027504000800080009C00840044003800000058
S214402760000000000000000000008800880088008C
S214402770F8008800880088008800000000000000FC
S214402780000000000000F80020002000200020008C
S21440279020002000F80000000000000000000000BC
S2144027A00000F800080008000800080008000800BC
S2144027B0F000000000000000000000000000840060
S2144027C088009000A000D0008800840084000000AC
S2144027D00000000000000000000080008000800034
S2144027E08000800080008000FC00000000000000A8
S2144027F00000000000008400CC00CC00B400B40010
S21440280084008400840000000000000000000000F7
S21440281000008400C400C400A400A40094009400F7
S2144028208C0000000000000000000000000078005F
S21440283084008400840084008400840078000000C3
S21440284000000000000000000000F8008400840043
S2144028508400F80080008000800000000000000037
S214402860000000000000780084008400840084009B
S214402870840084007800200018000000000000005B
S2144028800000F800840084008400F800880084007B
S21440289084000000000000000000000000007C00F3
S2144028A0800080006000180004000400F80000006B
S2144028B000000000000000000000F800200020009B
S2144028C02000200020002000200000000000000023
S2144028D0000000000000840084008400840084001F
S2144028E08400840078000000000000000000000023
S2144028F000008400840084004800480048003000FF
S21440290030000000000000000000000000008800CA
S214402910A800A800A800A800A8005000500000008A
S2144029200000000000000000000088008800500002
S21440293020002000500088008800000000000000B2
S214402940000000000000880088008800500050000A
S21440295020002000200000000000000000000000D2
S2144029600000FC000400080010002000400080002A
S214402970FC00000000000000000000007000400066
S2144029804000400040004000400040004000400002
S21440299070000000000000004000400020002000C2
S2144029A02000100010001000080008000000000082
S2144029B00000000038000800080008000800080072
S2144029C0080008000800080038000000000000006A
S2144029D01000280044000000000000000000000036
S2144029E000000000000000000000000000000000A2
S2144029F0000000000000000000000000380000005A
S214402A000000000000000000000020001000000051
S214402A100000000000000000000000000000000071
S214402A2000000000000000000000700008000800E1
S214402A30780088007C0000000000000000000000D5
S214402A40800080008000F8008400840084008400B9
S214402A50F800000000000000000000000000000039
S214402A600000780080008000800080007800000031
S214402A7000000000000000000400040004007C0089
S214402A808400840084008C00740000000000000075
S214402A900000000000000000000078008400FC00F9
S214402AA0800080007C000000000000000000000065
S214402AB01C0020002000FC002000200020002000F9
S214402AC0FC000000000000000000000000000000C5
S214402AD000007C0084008400840084007C000400A5
S214402AE07800000000000000800080008000B800F1
S214402AF0C4008400840084008400000000000000BD
S214402B0000000000000010000000700010001000E0
S214402B10100010007C0000000000000000000000D4
S214402B2000000800000078000800080008000800C0
S214402B3008000800080070000000000080008000C8
S214402B40800088009000A000D00088008800000028
S214402B500000000000000000E000200020002000F0
S214402B602000200020002000F800000000000000A8
S214402B7000000000000000000000A400FC00A400CC
S214402B80A400A400A4000000000000000000000014
S214402B90000000000000B800C400840084008400E8
S214402BA0840000000000000000000000000000005C
S214402BB000007800840084008400840078000000D0
S214402BC00000000000000000000000000000B80008
S214402BD0C400840084008400F80080008000000068
S214402BE0000000000000000000007C00840084001C
S214402BF0840084007C000400040000000000000004
S214402C00000000000000D800600040004000400087
S214402C10F00000000000000000000000000000007F
S214402C20000078008000400030000800F0000000FF
S214402C300000000000000000000000002000FC0033
S214402C4020002000200020001C00000000000000A3
S214402C500000000000000000000088008800880097
S214402C60880088007C000000000000000000000093
S214402C7000000000000084008400840048004800F3
S214402C8030000000000000000000000000000000CF
S214402C9000008800A800A800A800A8005000000077
S214402CA00000000000000000000000000000880057
S214402CB05000200020005000880000000000000067
S214402CC0000000000000000000008400840048006F
S214402CD048003000100020004000000000000000C7
S214402CE0000000000000F80008001000200040002F
S214402CF0F800000000000000000000001000200067
S214402D0020001000200020001000200020001000AE
S214402D10000000000000000010001000100010002E
S214402D20000000001000100010001000000000001E
S214402D3000000000200010001000200010001000CE
S214402D402000100010002000000000004252554EA7
S214402D504F4152544300000050204341524942459F
S214402D600000000053205741525300004D41524945
S214402D704F000000544F502047454152000000008D
S214402D804C4956494E47205400000000B8A1402008
S214402D90F8B500BFF8BC08BC9E467047E521400029
S214402DA065014000F8B500BFF8BC08BC9E467047B9
S208402DB04101400058
S20C402DB400F1FF7F0100000062
S214402DBCBFF35F8F0138FBD1704700000000000066
S214402DCC042340000A0E207D0100000000093D004F
S214402DDC6E0200006E0200002A0200002A0200006A
S214402DEC6E0200006E0200006E0200006E020000D2
S214402DFC6E0200006E0200002A0200002A0200004A
S214402E0C2A0200002A0200006E0200006E02000039
S214402E1C2A0200002A0200002A0200002A020000B1
S214402E2C2A0200002A020000D2010000D201000053
S214402E3CA4030000A40300000B0200000B020000D9
S214402E4C2A0200002A0200002A0200002A02000081
S214402E5C6E0200006E0200000B0200000B02000027
S214402E6CB8010000B8010000BA020000BA02000027
S214402E7C5D0100005D0100005D0100005D01000089
S214402E8C5D0100005D0100005D0100005D01000079
S214402E9C5D0100005D0100003701000037010000B5
S214402EACE9000000E90000001501000015010000D3
S214402EBC1501000015010000370100003701000025
S214402ECC5D0100005D0100001501000015010000C9
S214402EDC3701000037010000150100001501000005
S214402EECE9000000E9000000150100001501000093
S214402EFC5D0100005D0100007101000071010000E1
S214402F0C5D0100005D010000150100001501000088
S214402F1C37010000370100005D0100005D01000034
S214402F2C71010000710100005D0100005D010000B0
S214402F3C37010000370100001501000015010000A4
S214402F4C15010000150100009F0100009F010000C4
S214402F5C5D0100005D0100003701000037010000F4
S214402F6C15010000150100009F0100009F010000A4
S214402F7C5D0100005D0100003701000037010000D4
S214402F8C1501000015010000D2010000D20100001E
S214402F9CD2010000D20100009F0100009F010000FA
S214402FAC71010000710100005D0100005D01000030
S214402FBC15010000150100007101000071010000B0
S214402FCC5D0100005D0100001501000015010000C8
S214402FDC15010000150100005D0100005D010000B8
S214402FEC71010000710100005D0100005D010000F0
S214402FFC15010000150100003701000037010000E4
S21440300C5D0100005D0100005D0100005D010000F7
S21440301C71010000710100005D0100005D010000BF
S21440302C370100003701000037010000370100006F
S21440303C15010000150100005D0100005D01000057
S21440304C5D0100005D0100005D0100005D010000B7
S21440305C5D0100005D0100005D0100005D010000A7
S21440306C5D0100005D0100003701000037010000E3
S21440307CE9000000E9000000E9000000E90000005B
S21440308C1501000015010000150100001501000097
S21440309C37010000370100003701000037010000FF
S2144030AC5D0100005D0100001501000015010000E7
S2144030BC3701000037010000150100001501000023
S2144030CCE9000000E90000001501000015010000B1
S2144030DC5D0100005D0100005D0100005D01000027
S2144030EC71010000710100005D0100005D010000EF
S2144030FC15010000150100003701000037010000E3
S21440310C5D0100005D0100005D0100005D010000F6
S21440311C5D0100005D0100007101000071010000BE
S21440312C5D0100005D010000370100003701000022
S21440313C15010000150100001501000015010000E6
S21440314C9F0100009F0100005D0100005D01000032
S21440315C3701000037010000150100001501000082
S21440316C9F0100009F0100005D0100005D01000012
S21440317C3701000037010000150100001501000062
S21440318CD2010000D20100009F0100009F01000008
S21440319C71010000710100001501000015010000CE
S2144031AC71010000710100005D0100005D0100002E
S2144031BC1501000015010000150100001501000066
S2144031CC5D0100005D01000071010000710100000E
S2144031DC5D0100005D0100001501000015010000B6
S2144031EC37010000370100005D0100005D01000062
S2144031FC5D0100005D0100007101000071010000DE
S21440320C5D0100005D010000370100003701000041
S21440321C1501000015010000D2010000D20100008B
S21440322C2A0200002A0200006E0200006E02000015
S21440323C0B0200000B020000D2010000D20100007D
S21440324C2A0200002A020000D2010000D20100002F
S21440325CED010000ED010000D2010000D20100009B
S21440326C4B0200004B020000ED010000ED01000097
S21440327CED010000ED010000D2010000D20100007B
S21440328C9F0100009F0100007101000071010000C9
S21440329C7101000071010000710100007101000015
S2144032AC5D0100005D01000071010000710100002D
S2144032BC5D0100005D010000370100003701000091
S2144032CC3701000037010000150100001501000011
S2144032DCD2010000D20100002A0200002A0200009F
S2144032EC6E0200006E0200000B0200000B02000093
S2144032FCD2010000D2010000D2010000D201000031
S21440330C2A0200002A0200002A0200002A020000BC
S21440331CD2010000D2010000ED010000ED010000DA
S21440332CD2010000D20100004B0200004B0200000C
S21440333CED010000ED010000ED010000ED01000084
S21440334CD2010000D20100009F0100009F01000046
S21440335C7101000071010000710100007101000054
S21440336C5D0100005D0100005D0100005D01000094
S21440337C71010000710100005D0100005D0100005C
S21440338C370100003701000037010000370100000C
S21440339C1501000015010000D2010000D20100000A
S2144033AC2A0200002A020000BA020000D2010000E5
S2144033BCBA020000D20100002A0200002A020000D5
S2144033CCE3020000E3020000D2010000D20100003C
S2144033DC9F0100009F0100000B0200000B02000042
S2144033EC6E0200006E020000E30200000B020000BA
S2144033FCE30200000B0200006E0200006E020000AA
S21440340C3E0300003E0300006E0200006E02000009
S21440341C0B0200000B0200002A0200002A020000E9
S21440342CBA020000BA0200003E0300002A02000066
S21440343C3E0300002A020000BA020000BA02000056
S21440344CA4030000A40300003E0300003E0300005B
S21440345C2A0200002A0200000B0200000B020000A9
S21440346C6E0200006E0200003E0300000B020000DD
S21440347C3E0300000B020000A4030000A40300005F
S21440348C3E0300003E030000D2010000D2010000C3
S21440349C2A0200002A020000BA020000D2010000F4
S2144034ACBA020000D20100002A0200002A020000E4
S2144034BCE3020000E3020000D2010000D20100004B
S2144034CC9F0100009F0100000B0200000B02000051
S2144034DC6E0200006E020000E30200000B020000C9
S2144034ECE30200000B0200006E0200006E020000B9
S2144034FC3E0300003E0300006E0200006E02000019
S21440350C0B0200000B0200002A0200002A020000F8
S21440351CBA020000BA0200003E0300002A02000075
S21440352C3E0300002A020000BA020000BA02000065
S21440353CA4030000A40300003E0300003E0300006A
S21440354C2A0200002A0200000B0200000B020000B8
S21440355C6E0200006E0200003E0300000B020000EC
S21440356C3E0300000B020000A4030000A40300006E
S21440357C3E0300003E030000D2010000D2010000D2
S21440358C2A0200002A020000BA020000D201000003
S21440359CBA020000D20100002A0200002A020000F3
S2144035ACE3020000E3020000D2010000D20100005A
S2144035BC9F0100009F0100000B0200000B02000060
S2144035CC6E0200006E020000E30200000B020000D8
S2144035DCE30200000B0200006E0200006E020000C8
S2144035EC3E0300003E0300006E0200006E02000028
S2144035FC0B0200000B0200002A0200002A02000008
S21440360CBA020000BA0200003E0300002A02000084
S21440361C3E0300002A020000BA020000BA02000074
S21440362CA4030000A40300003E0300003E03000079
S21440363C2A0200002A0200000B0200000B020000C7
S21440364C6E0200006E0200003E03000016040000EE
S21440365C3E0300001604000054040000540400000E
S21440366C1604000016040000A4030000A403000087
S21440367C3E0300003E030000D2010000D2010000D1
S21440368C2A0200002A020000BA020000D201000002
S21440369CBA020000D20100002A0200002A020000F2
S2144036ACE3020000E3020000D2010000D201000059
S2144036BC9F0100009F0100000B0200000B0200005F
S2144036CC6E0200006E020000E30200000B020000D7
S2144036DCE30200000B0200006E0200006E020000C7
S2144036EC3E0300003E0300006E0200006E02000027
S2144036FC0B0200000B0200002A0200002A02000007
S21440370CBA020000BA0200003E0300002A02000083
S21440371C3E0300002A020000BA020000BA02000073
S21440372CA4030000A40300003E0300003E03000078
S21440373C2A0200002A0200000B0200000B020000C6
S21440374C5D0100005D0100005D0100005D010000B0
S21440375C5D0100005D0100005D0100005D010000A0
S21440376C5D0100005D0100005D0100005D01000090
S21440377C5D0100005D0100003701000037010000CC
S21440378CE9000000E9000000E9000000E900000044
S21440379CE9000000E90000001501000015010000DA
S2144037AC150100001501000037010000370100002C
S2144037BC5D0100005D0100001501000015010000D0
S2144037CC370100003701000015010000150100000C
S2144037DCE9000000E900000015010000150100009A
S2144037EC15010000150100005D0100005D010000A0
S2144037FC5D0100005D0100007101000071010000D8
S21440380C5D0100005D01000015010000150100007F
S21440381C37010000370100005D0100005D0100002B
S21440382C5D0100005D0100007101000071010000A7
S21440383C5D0100005D01000037010000370100000B
S21440384C15010000150100001501000015010000CF
S21440385C9F0100009F0100005D0100005D0100001B
S21440386C370100003701000015010000150100006B
S21440387C9F0100009F0100005D0100005D010000FB
S21440388C370100003701000015010000150100004B
S21440389CD2010000D20100009F0100009F010000F1
S2144038AC71010000710100005D0100005D01000027
S2144038BC15010000150100007101000071010000A7
S2144038CC5D0100005D0100001501000015010000BF
S2144038DC15010000150100005D0100005D010000AF
S2144038EC71010000710100005D0100005D010000E7
S2144038FC15010000150100003701000037010000DB
S21440390C5D0100005D0100007101000071010000C6
S21440391C5D0100005D01000037010000370100002A
S21440392C15010000150100005D0100005D0100005E
S21440393C5D0100005D0100005D0100005D010000BE
S21440394C5D0100005D0100005D0100005D010000AE
S21440395C5D0100005D0100003701000037010000EA
S21440396CE9000000E9000000E9000000E900000062
S21440397CE9000000E90000001501000015010000F8
S21440398C150100001501000037010000370100004A
S21440399C37010000370100005D0100005D010000AA
S2144039AC150100001501000037010000370100002A
S2144039BC1501000015010000E9000000E9000000B8
S2144039CC15010000150100005D0100005D010000BE
S2144039DC71010000710100005D0100005D010000F6
S2144039EC15010000150100003701000037010000EA
S2144039FC5D0100005D0100007101000071010000D6
S214403A0C5D0100005D010000370100003701000039
S214403A1C15010000150100001501000015010000FD
S214403A2C9F0100009F0100005D0100005D01000049
S214403A3C3701000037010000150100001501000099
S214403A4C9F0100009F0100005D0100005D01000029
S214403A5C3701000037010000150100001501000079
S214403A6CD2010000D20100009F0100009F0100001F
S214403A7C71010000710100001501000015010000E5
S214403A8C71010000710100001501000015010000D5
S214403A9C15010000150100005D0100005D010000ED
S214403AAC71010000710100005D0100005D01000025
S214403ABC1501000015010000370100003701000019
S214403ACC5D0100005D0100005D0100005D0100002D
S214403ADC71010000710100005D0100005D010000F5
S214403AEC37010000370100001501000015010000E9
S214403AFCD2010000D20100002A0200002A02000077
S214403B0C6E0200006E0200000B0200000B0200006A
S214403B1CD2010000D20100002A0200002A02000056
S214403B2CD2010000D2010000ED010000ED010000C2
S214403B3CD2010000D20100004B0200004B020000F4
S214403B4CED010000ED010000ED010000ED0100006C
S214403B5CD2010000D20100009F0100009F0100002E
S214403B6C710100007101000071010000710100003C
S214403B7C71010000710100005D0100005D01000054
S214403B8C71010000710100005D0100005D01000044
S214403B9C37010000370100003701000037010000F4
S214403BAC1501000015010000D2010000D2010000F2
S214403BBC2A0200002A0200006E0200006E0200007C
S214403BCC0B0200000B020000D2010000D2010000E4
S214403BDCD2010000D20100002A0200002A02000096
S214403BEC2A0200002A020000D2010000D201000086
S214403BFCED010000ED010000D2010000D2010000F2
S214403C0C4B0200004B020000ED010000ED010000ED
S214403C1CED010000ED010000D2010000D2010000D1
S214403C2C9F0100009F01000071010000710100001F
S214403C3C71010000710100005D0100005D01000093
S214403C4C5D0100005D010000710100007101000083
S214403C5C5D0100005D0100003701000037010000E7
S214403C6C3701000037010000150100001501000067
S214403C7CE9000000E90000001501000015010000F5
S214403C8C5D0100005D010000E9000000E900000055
S214403C9C15010000150100005D0100005D010000EB
S214403CACF6000000F60000001501000015010000AB
S214403CBC5D0100005D010000F6000000F60000000B
S214403CCC15010000150100009F0100009F01000037
S214403CDC7101000071010000D2010000D201000009
S214403CEC2A0200002A020000710100007101000047
S214403CFCB8010000B80100006E0200006E02000021
S214403D0C5D0100005D0100009F0100009F01000066
S214403D1C2A0200002A0200005D0100005D0100003E
S214403D2C37010000370100001501000015010000A6
S214403D3CE9000000E9000000150100001501000034
S214403D4C5D0100005D010000E9000000E900000094
S214403D5C150100005D010000150100000501000082
S214403D6C5D01000005010000F6000000F6000000B2
S214403D7C15010000150100005D0100005D0100000A
S214403D8CF6000000F6000000150100009F01000040
S214403D9C15010000CF0000009F010000CF0000007E
S214403DAC7101000071010000D2010000D201000038
S214403DBC2A0200002A020000710100007101000076
S214403DCCD201000015010000D20100006E02000076
S214403DDC15010000CF0000006E020000CF0000006E
S214403DEC5D01000005010000050100001501000002
S214403DFC5D010000150100009F0100000501000058
S214403E0C9F010000050100002A0200002A02000063
S214403E1C5D0100005D010000370100003701000025
S214403E2C1501000015010000050100000501000009
S214403E3C1501000015010000E9000000E900000033
S214403E4C7003000070030000160400001604000007
S214403E5C7405000074050000700300007003000039
S214403E6C16040000160400007405000074050000DB
S214403E7C70030000700300001604000016040000D7
S214403E8C1F0600001F0600007003000070030000B1
S214403E9C16040000160400007405000074050000AB
S214403EAC70030000700300001604000016040000A7
S214403EBC74050000740500007003000070030000D9
S214403ECC0F0300000F030000160400001604000049
S214403EDCDC040000DC0400000F0300000F030000AD
S214403EEC1604000016040000DC040000DC0400008D
S214403EFC0F0300000F030000160400001604000019
S214403F0C74050000740500000F0300000F0300004A
S214403F1C1604000016040000DC040000DC0400005C
S214403F2C0F0300000F0300001604000016040000E8
S214403F3CDC040000DC04000096040000960400003C
S214403F4C7003000070030000160400001604000006
S214403F5C7405000074050000700300007003000038
S214403F6C16040000160400007405000074050000DA
S214403F7C70030000700300001604000016040000D6
S214403F8C1F0600001F0600007003000070030000B0
S214403F9C16040000160400007405000074050000AA
S214403FAC70030000700300001604000016040000A6
S214403FBC74050000740500007003000070030000D8
S214403FCC0F0300000F030000160400001604000048
S214403FDCDC040000DC0400000F0300000F030000AC
S214403FEC1604000016040000DC040000DC0400008C
S214403FFC0F0300000F030000160400001604000018
S21440400C74050000740500000F0300000F03000049
S21440401C1604000016040000DC040000DC0400005B
S21440402C0F0300000F0300001604000016040000E7
S21440403CDC040000DC04000096040000960400003B
S21440404C3E0300003E030000160400001604000069
S21440405CDC040000DC0400003E0300003E030000CD
S21440406C1604000016040000DC040000DC0400000B
S21440407C3E0300003E030000160400001604000039
S21440408CDC040000DC0400003E0300003E0300009D
S21440409C1604000016040000DC040000DC040000DB
S2144040AC3E0300003E030000160400001604000009
S2144040BCDC040000DC0400003E0300003E0300006D
S2144040CCA4030000A403000096040000960400001D
S2144040DC7405000074050000A4030000A40300004F
S2144040EC9604000096040000740500007405000059
S2144040FCA4030000A40300009604000096040000ED
S21440410C7405000074050000A4030000A40300001E
S21440411C9604000096040000740500007405000028
S21440412CA4030000A40300009604000096040000BC
S21440413C7405000074050000A4030000A4030000EE
S21440414C7003000070030000160400001604000004
S21440415C7405000074050000700300007003000036
S21440416C16040000160400007405000074050000D8
S21440417C70030000700300001604000016040000D4
S21440418C1F0600001F0600007003000070030000AE
S21440419C16040000160400007405000074050000A8
S2144041AC70030000700300001604000016040000A4
S2144041BC74050000740500007003000070030000D6
S2144041CC0F0300000F030000160400001604000046
S2144041DCDC040000DC0400000F0300000F030000AA
S2144041EC1604000016040000DC040000DC0400008A
S2144041FC0F0300000F030000160400001604000016
S21440420C74050000740500000F0300000F03000047
S21440421C1604000016040000DC040000DC04000059
S21440422C0F0300000F0300001604000016040000E5
S21440423CDC040000DC040000960400009604000039
S21440424C7003000070030000160400001604000003
S21440425C7405000074050000700300007003000035
S21440426C16040000160400007405000074050000D7
S21440427C70030000700300001604000016040000D3
S21440428C1F0600001F0600007003000070030000AD
S21440429C16040000160400007405000074050000A7
S2144042AC70030000700300001604000016040000A3
S2144042BC74050000740500007003000070030000D5
S2144042CC0F0300000F030000160400001604000045
S2144042DCDC040000DC0400000F0300000F030000A9
S2144042EC1604000016040000DC040000DC04000089
S2144042FC0F0300000F030000160400001604000015
S21440430C74050000740500000F0300000F03000046
S21440431C1604000016040000DC040000DC04000058
S21440432C0F0300000F0300001604000016040000E4
S21440433CDC040000DC040000960400009604000038
S21440434C3E0300003E030000160400001604000066
S21440435CDC040000DC0400003E0300003E030000CA
S21440436C1604000016040000DC040000DC04000008
S21440437C3E0300003E030000160400001604000036
S21440438CDC040000DC0400003E0300003E0300009A
S21440439C1604000016040000DC040000DC040000D8
S2144043AC3E0300003E030000160400001604000006
S2144043BCDC040000DC0400003E0300003E0300006A
S2144043CCA4030000A403000096040000960400001A
S2144043DC7405000074050000A4030000A40300004C
S2144043EC9604000096040000740500007405000056
S2144043FCA4030000A40300009604000096040000EA
S21440440C7405000074050000A4030000A40300001B
S21440441C9604000096040000740500007405000025
S21440442CA4030000A40300009604000096040000B9
S21440443C7405000074050000A4030000A4030000EB
S21440444C0F0300000F0300001604000016040000C3
S21440445CDC040000DC0400000F0300000F03000027
S21440446C1604000016040000DC040000DC04000007
S21440447C0F0300000F030000160400001604000093
S21440448C74050000740500000F0300000F030000C5
S21440449C1604000016040000DC040000DC040000D7
S2144044AC0F0300000F030000160400001604000063
S2144044BCDC040000DC0400009604000096040000B7
S2144044CC0F0300000F030000160400001604000043
S2144044DCDC040000DC0400000F0300000F030000A7
S2144044EC1604000016040000DC040000DC04000087
S2144044FC0F0300000F030000160400001604000013
S21440450C74050000740500000F0300000F03000044
S21440451C1604000016040000DC040000DC04000056
S21440452C0F0300000F0300001604000016040000E2
S21440453CDC040000DC040000960400009604000036
S21440454C0F0300000F0300001604000016040000C2
S21440455CDC040000DC0400000F0300000F03000026
S21440456C1604000016040000DC040000DC04000006
S21440457C0F0300000F030000160400001604000092
S21440458C74050000740500000F0300000F030000C4
S21440459C1604000016040000DC040000DC040000D6
S2144045AC0F0300000F030000160400001604000062
S2144045BCDC040000DC0400009604000096040000B6
S2144045CC0F0300000F030000160400001604000042
S2144045DCDC040000DC0400000F0300000F030000A6
S2144045EC1604000016040000DC040000DC04000086
S2144045FC0F0300000F030000160400001604000012
S21440460C74050000740500000F0300000F03000043
S21440461C1604000016040000DC040000DC04000055
S21440462C0F0300000F0300001604000016040000E1
S21440463CDC040000DC040000960400009604000035
S21440464C0F0300000F0300001604000016040000C1
S21440465CDC040000DC0400000F0300000F03000025
S21440466C1604000016040000DC040000DC04000005
S21440467C0F0300000F030000160400001604000091
S21440468C74050000740500000F0300000F030000C3
S21440469C1604000016040000DC040000DC040000D5
S2144046AC0F0300000F030000160400001604000061
S2144046BCDC040000DC0400009604000096040000B5
S2144046CC0F0300000F030000160400001604000041
S2144046DCDC040000DC0400000F0300000F030000A5
S2144046EC1604000016040000DC040000DC04000085
S2144046FC0F0300000F030000160400001604000011
S21440470C74050000740500000F0300000F03000042
S21440471C1604000016040000DC040000DC04000054
S21440472C0F0300000F0300001604000016040000E0
S21440473CDC040000DC040000960400009604000034
S21440474C70030000700300001604000016040000FE
S21440475C7405000074050000700300007003000030
S21440476C16040000160400007405000074050000D2
S21440477C70030000700300001604000016040000CE
S21440478C1F0600001F0600007003000070030000A8
S21440479C16040000160400007405000074050000A2
S2144047AC700300007003000016040000160400009E
S2144047BC74050000740500007003000070030000D0
S2144047CC700300007003000016040000160400007E
S2144047DC74050000740500007003000070030000B0
S2144047EC1604000016040000740500007405000052
S2144047FC700300007003000016040000160400004E
S21440480C1F0600001F060000700300007003000027
S21440481C1604000016040000740500007405000021
S21440482C700300007003000016040000160400001D
S21440483C740500007405000070030000700300004F
S21440484C0F0300000F0300001604000016040000BF
S21440485CDC040000DC0400000F0300000F03000023
S21440486C1604000016040000DC040000DC04000003
S21440487C0F0300000F03000016040000160400008F
S21440488C74050000740500000F0300000F030000C1
S21440489C1604000016040000DC040000DC040000D3
S2144048AC0F0300000F03000016040000160400005F
S2144048BCDC040000DC0400009604000096040000B3
S2144048CC0F0300000F03000016040000160400003F
S2144048DCDC040000DC0400000F0300000F030000A3
S2144048EC1604000016040000DC040000DC04000083
S2144048FC0F0300000F03000016040000160400000F
S21440490C74050000740500000F0300000F03000040
S21440491C1604000016040000DC040000DC04000052
S21440492C0F0300000F0300001604000016040000DE
S21440493CDC040000DC040000960400009604000032
S21440494C70030000700300001604000016040000FC
S21440495C740500007405000070030000700300002E
S21440496C16040000160400007405000074050000D0
S21440497C70030000700300001604000016040000CC
S21440498C1F0600001F0600007003000070030000A6
S21440499C16040000160400007405000074050000A0
S2144049AC700300007003000016040000160400009C
S2144049BC74050000740500007003000070030000CE
S2144049CC700300007003000016040000160400007C
S2144049DC74050000740500007003000070030000AE
S2144049EC1604000016040000740500007405000050
S2144049FC700300007003000016040000160400004C
S214404A0C1F0600001F060000700300007003000025
S214404A1C160400001604000074050000740500001F
S214404A2C700300007003000016040000160400001B
S214404A3C740500007405000070030000700300004D
S214404A4C0F0300000F0300001604000016040000BD
S214404A5CDC040000DC0400000F0300000F03000021
S214404A6C1604000016040000DC040000DC04000001
S214404A7C0F0300000F03000016040000160400008D
S214404A8C74050000740500000F0300000F030000BF
S214404A9C1604000016040000DC040000DC040000D1
S214404AAC0F0300000F03000016040000160400005D
S214404ABCDC040000DC0400009604000096040000B1
S214404ACC0F0300000F03000016040000160400003D
S214404ADCDC040000DC0400000F0300000F030000A1
S214404AEC1604000016040000DC040000DC04000081
S214404AFC0F0300000F03000016040000160400000D
S214404B0C74050000740500000F0300000F0300003E
S214404B1C1604000016040000DC040000DC04000050
S214404B2C0F0300000F0300001604000016040000DC
S214404B3CDC040000DC040000960400009604000030
S214404B4C70030000700300001604000016040000FA
S214404B5C740500007405000070030000700300002C
S214404B6C16040000160400007405000074050000CE
S214404B7C70030000700300001604000016040000CA
S214404B8C1F0600001F0600007003000070030000A4
S214404B9C160400001604000074050000740500009E
S214404BAC700300007003000016040000160400009A
S214404BBC74050000740500007003000070030000CC
S214404BCC700300007003000016040000160400007A
S214404BDC74050000740500007003000070030000AC
S214404BEC160400001604000074050000740500004E
S214404BFC700300007003000016040000160400004A
S214404C0C1F0600001F060000700300007003000023
S214404C1C160400001604000074050000740500001D
S214404C2C7003000070030000160400001604000019
S214404C3C740500007405000070030000700300004B
S214404C4C3E0300003E03000016040000160400005D
S214404C5CDC040000DC0400003E0300003E030000C1
S214404C6C1604000016040000DC040000DC040000FF
S214404C7C3E0300003E03000016040000160400002D
S214404C8CDC040000DC0400003E0300003E03000091
S214404C9C1604000016040000DC040000DC040000CF
S214404CAC3E0300003E0300001604000016040000FD
S214404CBCDC040000DC0400003E0300003E03000061
S214404CCCA4030000A4030000960400009604000011
S214404CDC7405000074050000A4030000A403000043
S214404CEC960400009604000074050000740500004D
S214404CFCA4030000A40300009604000096040000E1
S214404D0C7405000074050000A4030000A403000012
S214404D1C960400009604000074050000740500001C
S214404D2CA4030000A40300009604000096040000B0
S214404D3C7405000074050000A4030000A4030000E2
S214404D4C0F0300000F0300001604000016040000BA
S214404D5CDC040000DC0400000F0300000F0300001E
S214404D6C1604000016040000DC040000DC040000FE
S214404D7C0F0300000F03000016040000160400008A
S214404D8C74050000740500000F0300000F030000BC
S214404D9C1604000016040000DC040000DC040000CE
S214404DAC0F0300000F03000016040000160400005A
S214404DBCDC040000DC0400009604000096040000AE
S214404DCC0F0300000F03000016040000160400003A
S214404DDCDC040000DC0400000F0300000F0300009E
S214404DEC1604000016040000DC040000DC0400007E
S214404DFC0F0300000F03000016040000160400000A
S214404E0C74050000740500000F0300000F0300003B
S214404E1C1604000016040000DC040000DC0400004D
S214404E2C0F0300000F0300001604000016040000D9
S214404E3CDC040000DC04000096040000960400002D
S214404E4C0F0300000F0300001604000016040000B9
S214404E5CDC040000DC0400000F0300000F0300001D
S214404E6C1604000016040000DC040000DC040000FD
S214404E7C0F0300000F030000160400001604000089
S214404E8C74050000740500000F0300000F030000BB
S214404E9C1604000016040000DC040000DC040000CD
S214404EAC0F0300000F030000160400001604000059
S214404EBCDC040000DC0400009604000096040000AD
S214404ECC0F0300000F030000160400001604000039
S214404EDCDC040000DC0400000F0300000F0300009D
S214404EEC1604000016040000DC040000DC0400007D
S214404EFC0F0300000F030000160400001604000009
S214404F0C74050000740500000F0300000F0300003A
S214404F1C1604000016040000DC040000DC0400004C
S214404F2C0F0300000F0300001604000016040000D8
S214404F3CDC040000DC04000096040000960400002C
S214404F4C0F0300000F0300001604000016040000B8
S214404F5CDC040000DC0400000F0300000F0300001C
S214404F6C1604000016040000DC040000DC040000FC
S214404F7C0F0300000F030000160400001604000088
S214404F8C74050000740500000F0300000F030000BA
S214404F9C1604000016040000DC040000DC040000CC
S214404FAC0F0300000F030000160400001604000058
S214404FBCDC040000DC0400009604000096040000AC
S214404FCC0F0300000F030000160400001604000038
S214404FDCDC040000DC0400000F0300000F0300009C
S214404FEC1604000016040000DC040000DC0400007C
S214404FFC0F0300000F030000160400001604000008
S21440500C74050000740500000F0300000F03000039
S21440501C1604000016040000DC040000DC0400004B
S21440502C0F0300000F0300001604000016040000D7
S21440503CDC040000DC04000096040000960400002B
S21440504C0F0300000F0300001604000016040000B7
S21440505CDC040000DC0400000F0300000F0300001B
S21440506C1604000016040000DC040000DC040000FB
S21440507C0F0300000F030000160400001604000087
S21440508C74050000740500000F0300000F030000B9
S21440509C1604000016040000DC040000DC040000CB
S2144050AC0F0300000F030000160400001604000057
S2144050BCDC040000DC0400009604000096040000AB
S2144050CC0F0300000F030000160400001604000037
S2144050DCDC040000DC0400000F0300000F0300009B
S2144050EC1604000016040000DC040000DC0400007B
S2144050FC0F0300000F030000160400001604000007
S21440510C74050000740500000F0300000F03000038
S21440511C1604000016040000DC040000DC0400004A
S21440512C0F0300000F0300001604000016040000D6
S21440513CDC040000DC04000096040000960400002A
S21440514C0F0300000F0300001604000016040000B6
S21440515CDC040000DC0400000F0300000F0300001A
S21440516C1604000016040000DC040000DC040000FA
S21440517C0F0300000F030000160400001604000086
S21440518C74050000740500000F0300000F030000B8
S21440519C1604000016040000DC040000DC040000CA
S2144051AC0F0300000F030000160400001604000056
S2144051BCDC040000DC0400009604000096040000AA
S2144051CC0F0300000F030000160400001604000036
S2144051DCDC040000DC0400000F0300000F0300009A
S2144051EC1604000016040000DC040000DC0400007A
S2144051FC0F0300000F030000160400001604000006
S21440520C74050000740500000F0300000F03000037
S21440521C1604000016040000DC040000DC04000049
S21440522C0F0300000F0300001604000016040000D5
S21440523CDC040000DC040000960400009604000029
S21440524C0F0300000F0300001604000016040000B5
S21440525CDC040000DC0400000F0300000F03000019
S21440526C1604000016040000DC040000DC040000F9
S21440527C0F0300000F030000160400001604000085
S21440528C74050000740500000F0300000F030000B7
S21440529C1604000016040000DC040000DC040000C9
S2144052AC0F0300000F030000160400001604000055
S2144052BCDC040000DC0400009604000096040000A9
S2144052CC0F0300000F030000160400001604000035
S2144052DCDC040000DC0400000F0300000F03000099
S2144052EC1604000016040000DC040000DC04000079
S2144052FC0F0300000F030000160400001604000005
S21440530C74050000740500000F0300000F03000036
S21440531C1604000016040000DC040000DC04000048
S21440532C0F0300000F0300001604000016040000D4
S21440533CDC040000DC040000960400009604000028
S21440534C70030000700300001604000016040000F2
S21440535C7405000074050000700300007003000024
S21440536C16040000160400007405000074050000C6
S21440537C70030000700300001604000016040000C2
S21440538C1F0600001F06000070030000700300009C
S21440539C1604000016040000740500007405000096
S2144053AC7003000070030000160400001604000092
S2144053BC74050000740500007003000070030000C4
S2144053CC7003000070030000160400001604000072
S2144053DC74050000740500007003000070030000A4
S2144053EC1604000016040000740500007405000046
S2144053FC7003000070030000160400001604000042
S21440540C1F0600001F06000070030000700300001B
S21440541C1604000016040000740500007405000015
S21440542C7003000070030000160400001604000011
S21440543C7405000074050000700300007003000043
S21440544C0F0300000F0300001604000016040000B3
S21440545CDC040000DC0400000F0300000F03000017
S21440546C1604000016040000DC040000DC040000F7
S21440547C0F0300000F030000160400001604000083
S21440548C74050000740500000F0300000F030000B5
S21440549C1604000016040000DC040000DC040000C7
S2144054AC0F0300000F030000160400001604000053
S2144054BCDC040000DC0400009604000096040000A7
S2144054CC0F0300000F030000160400001604000033
S2144054DCDC040000DC0400000F0300000F03000097
S2144054EC1604000016040000DC040000DC04000077
S2144054FC0F0300000F030000160400001604000003
S21440550C74050000740500000F0300000F03000034
S21440551C1604000016040000DC040000DC04000046
S21440552C0F0300000F0300001604000016040000D2
S21440553CDC040000DC040000960400009604000026
S21440554C70030000700300001604000016040000F0
S21440555C7405000074050000700300007003000022
S21440556C16040000160400007405000074050000C4
S21440557C70030000700300001604000016040000C0
S21440558C1F0600001F06000070030000700300009A
S21440559C1604000016040000740500007405000094
S2144055AC7003000070030000160400001604000090
S2144055BC74050000740500007003000070030000C2
S2144055CC7003000070030000160400001604000070
S2144055DC74050000740500007003000070030000A2
S2144055EC1604000016040000740500007405000044
S2144055FC7003000070030000160400001604000040
S21440560C1F0600001F060000700300007003000019
S21440561C1604000016040000740500007405000013
S21440562C700300007003000016040000160400000F
S21440563C7405000074050000700300007003000041
S21440564C3E0300003E030000160400001604000053
S21440565CDC040000DC0400003E0300003E030000B7
S21440566C1604000016040000DC040000DC040000F5
S21440567C3E0300003E030000160400001604000023
S21440568CDC040000DC0400003E0300003E03000087
S21440569C1604000016040000DC040000DC040000C5
S2144056AC3E0300003E0300001604000016040000F3
S2144056BCDC040000DC0400003E0300003E03000057
S2144056CCA4030000A4030000960400009604000007
S2144056DC7405000074050000A4030000A403000039
S2144056EC9604000096040000740500007405000043
S2144056FCA4030000A40300009604000096040000D7
S21440570C7405000074050000A4030000A403000008
S21440571C9604000096040000740500007405000012
S21440572CA4030000A40300009604000096040000A6
S21440573C7405000074050000A4030000A4030000D8
S21440574C0F0300000F0300001604000016040000B0
S21440575CDC040000DC0400000F0300000F03000014
S21440576C1604000016040000DC040000DC040000F4
S21440577C0F0300000F030000160400001604000080
S21440578C74050000740500000F0300000F030000B2
S21440579C1604000016040000DC040000DC040000C4
S2144057AC0F0300000F030000160400001604000050
S2144057BCDC040000DC0400009604000096040000A4
S2144057CC0F0300000F030000160400001604000030
S2144057DCDC040000DC0400000F0300000F03000094
S2144057EC1604000016040000DC040000DC04000074
S2144057FC0F0300000F030000160400001604000000
S21440580C74050000740500000F0300000F03000031
S21440581C1604000016040000DC040000DC04000043
S21440582C0F0300000F0300001604000016040000CF
S21440583CDC040000DC040000960400009604000023
S21440584CDC040000DC0400003E0300003E030000C5
S21440585C16040000160400003E0300003E03000041
S21440586CDC040000DC0400003E0300003E030000A5
S21440587C16040000160400003E0300003E03000021
S21440588C7405000074050000A4030000A403000087
S21440589C9604000096040000A4030000A403000035
S2144058AC7405000074050000A4030000A403000067
S2144058BC9604000096040000A4030000A403000015
